:020000040800F2
:1000000000000320F90C00083D0D00083D0D00081C
:100010003D0D00083D0D00083D0D000800000000EA
:100020000000000000000000000000003D5100083A
:100030003D0D000800000000095200086152000850
:100040003D0D00083D0D00083D0D00083D0D000868
:100050003D0D00083D0D00083D0D00083D0D000858
:100060003D0D00083D0D00083D0D00083D0D000848
:100070003D0D00083D0D00083D0D00083D0D000838
:100080003D0D00083D0D00083D0D00083D0D000828
:100090003D0D00083D0D00083D0D00083D0D000818
:1000A0003D0D00083D0D00083D0D00083D0D000808
:1000B0003D0D00083D0D00083D0D00083D0D0008F8
:1000C0003D0D00083D0D00083D0D00083D0D0008E8
:1000D0003D0D00083D0D00083D0D00083D0D0008D8
:1000E0003D0D00083D0D00083D0D00083D0D0008C8
:1000F0003D0D00083D0D00083D0D00083D0D0008B8
:100100003D0D00083D0D00083D0D00083D0D0008A7
:100110003D0D00083D0D00083D0D00083D0D000897
:100120003D0D00083D0D00083D0D00083D0D000887
:100130003D0D00083D0D00083D0D00083D0D000877
:100140003D0D00083D0D00083D0D00083D0D000867
:100150003D0D00083D0D00083D0D00083D0D000857
:100160003D0D00083D0D00083D0D00083D0D000847
:100170003D0D00083D0D00083D0D00083D0D000837
:100180003D0D00083D0D00083D0D00083D0D000827
:100190003D0D00083D0D00083D0D00083D0D000817
:0C01A0003D0D00083D0D00083D0D00085D
:1001B0000C42010800000020C0000020C000002008
:1001C0009C2F0120844641EA000313F003036DD104
:1001D000403A41D351F8043B40F8043B51F8043B0A
:1001E00040F8043B51F8043B40F8043B51F8043B11
:1001F00040F8043B51F8043B40F8043B51F8043B01
:1002000040F8043B51F8043B40F8043B51F8043BF0
:1002100040F8043B51F8043B40F8043B51F8043BE0
:1002200040F8043B51F8043B40F8043B51F8043BD0
:1002300040F8043B51F8043B40F8043B51F8043BC0
:1002400040F8043B51F8043B40F8043B51F8043BB0
:1002500040F8043B403ABDD2303211D351F8043B50
:1002600040F8043B51F8043B40F8043B51F8043B90
:1002700040F8043B51F8043B40F8043B103AEDD2FF
:100280000C3205D351F8043B40F8043B043AF9D250
:10029000043208D0D2071CBF11F8013B00F8013B23
:1002A00001D30B8803806046704700BF082A13D330
:1002B0008B078DD010F003038AD0C3F10403D21A48
:1002C000DB071CBF11F8013B00F8013B80D331F87C
:1002D000023B20F8023B7BE7043AD9D3013A11F8FC
:1002E000013B00F8013BF9D20B7803704B78437067
:1002F0008B7883706046704740EA010C1CF0070F52
:1003000023D1BDF1100DCDE90245CDE900676FF0B5
:1003100000064FF0000700BFF0E80223F1E80245B5
:10032000A24282FA46FCA7FA86FC08BFBCF1000F85
:1003300040F0D780AB4283FA46FCA7FA86FC08BFA0
:10034000BCF1000F40F0CA80E6E710F0030C21D0AA
:1003500020F0030050F8042B5FEACC7C08D00FD2C9
:1003600011F801CB5FFA92F3B3EB0C0C10D17BB117
:1003700011F801CB5FFAA2F3B3EB0C0C08D13BB13F
:1003800011F801CB5FFAB2F3B3EB0C0C00D10BB94F
:1003900060467047BDF1100DCDE90245CDE900671B
:1003A0006FF000064FF0000711F0030C2DD110F094
:1003B000040F0DD050F8042B51F8044BA24282FADE
:1003C00046FCA7FA86FC08BFBCF1000F40F089800C
:1003D00011F0040F9FD051F8045B00BFF0E8022336
:1003E000AA4282FA46FCA7FA86FC08BFBCF1000FBD
:1003F00071D1F1E80245A34283FA46FCA7FA86FCD4
:1004000008BFBCF1000F63D1E8E721F00301BCF1A4
:10041000020F1ED03BDA51F8045B00BF50F8043BDA
:100420004FEA152583FA46FCA7FA86FCB7EB0C2F9A
:1004300003EA162208BFAA424DD151F8045BBCF171
:10044000000F82EA03034FEA056208BF93423CD1E2
:10045000E4E751F8045B00BF50F8043B4FEA154550
:1004600083FA46FCA7FA86FCB7EB0C4F03EA164268
:1004700008BFAA422FD151F8045BBCF1000F82EAF9
:1004800003034FEA054208BF93421ED1E4E751F847
:10049000045B00BF50F8043B4FEA156583FA46FC45
:1004A000A7FA86FCB7EB0C6F03EA166208BFAA42F4
:1004B00011D151F8045BBCF1000F82EA03034FEA4B
:1004C000052208BF934200D1E4E719BA12BA0AE044
:1004D00019BA22BA07E011BA2ABA04E019BA2ABA3C
:1004E00001E011BA22BA9CFA8CF0DDE90067DDE97F
:1004F00002451DF1100D38B1B0FA80F0C0F11800BE
:1005000021FA00F122FA00F20120914298BF8041C5
:10051000704700BF81F0004102E000BF83F000435C
:1005200030B54FEA41044FEA430594EA050F08BF8E
:1005300090EA020F1FBF54EA000C55EA020C7FEA52
:10054000645C7FEA655C00F0E2804FEA5454D4EBCF
:100550005555B8BF6D420CDD2C4480EA020281EA99
:10056000030382EA000083EA010180EA020281EAD1
:100570000303362D88BF30BD11F0004F4FEA013123
:100580004FF4801C4CEA113102D0404261EB410132
:1005900013F0004F4FEA03334CEA133302D05242B8
:1005A00063EB430394EA050F00F0A780A4F1010474
:1005B000D5F1200E0DDB02FA0EFC22FA05F28018AE
:1005C00041F1000103FA0EF2801843FA05F3594194
:1005D0000EE0A5F120050EF1200E012A03FA0EFC13
:1005E00028BF4CF0020C43FA05F3C01851EBE3713D
:1005F00001F0004507D54FF0000EDCF1000C7EEB5A
:1006000000006EEB0101B1F5801F1BD3B1F5001F97
:100610000CD349085FEA30004FEA3C0C04F10104B6
:100620004FEA445212F5800F80F09A80BCF1004FDF
:1006300008BF5FEA500C50F1000041EB045141EA61
:10064000050130BD5FEA4C0C404141EB010111F462
:10065000801FA4F10104E9D191F0000F04BF01460D
:100660000020B1FA81F308BF2033A3F10B03B3F1EB
:1006700020020CDA0C3208DD02F1140CC2F10C027B
:1006800001FA0CF021FA02F10CE002F11402D8BFD9
:10069000C2F1200C01FA02F120FA0CFCDCBF41EAA5
:1006A0000C019040E41AA2BF01EB0451294330BD74
:1006B0006FEA04041F3C1CDA0C340EDC04F1140451
:1006C000C4F1200220FA04F001FA02F340EA030028
:1006D00021FA04F345EA030130BDC4F10C04C4F16E
:1006E000200220FA02F001FA04F340EA030029464E
:1006F00030BD21FA04F0294630BD94F0000F83F498
:10070000801306BF81F480110134013D4EE77FEA7A
:10071000645C18BF7FEA655C29D094EA050F08BFC6
:1007200090EA020F05D054EA000C04BF19461046A7
:1007300030BD91EA030F1EBF0021002030BD5FEAEB
:10074000545C05D14000494128BF41F0004130BD13
:1007500014F580043CBF01F5801130BD01F0004567
:1007600045F0FE4141F470014FF0000030BD7FEADA
:10077000645C1ABF194610467FEA655C1CBF0B46D5
:10078000024650EA013406BF52EA033591EA030FEC
:1007900041F4002130BD00BF90F0000F04BF0021E4
:1007A000704730B54FF4806404F132044FF0000517
:1007B0004FF0000150E700BF90F0000F04BF002190
:1007C000704730B54FF4806404F1320410F00045F6
:1007D00048BF40424FF000013EE700BF42004FEAF1
:1007E000E2014FEA31014FEA02701FBF12F07F436E
:1007F00093F07F4F81F06051704792F0000F14BF6B
:1008000093F07F4F704730B54FF4607401F00045AE
:1008100021F0004120E700BF50EA010208BF704705
:1008200030B54FF000050AE050EA010208BF7047FA
:1008300030B511F0004502D5404261EB41014FF463
:10084000806404F132045FEA915C3FF4DCAE4FF067
:1008500003025FEADC0C18BF03325FEADC0C18BF4E
:10086000033202EBDC02C2F1200300FA03FC20FA9F
:1008700002F001FA03FE40EA0E0021FA02F11444EC
:10088000C1E600BF70B54FF0FF0C4CF4E06C1CEA01
:1008900011541DBF1CEA135594EA0C0F95EA0C0F76
:1008A00000F0DEF82C4481EA030621EA4C5123EAE9
:1008B0004C5350EA013518BF52EA033541F4801118
:1008C00043F4801338D0A0FB02CE4FF00005E1FBCB
:1008D00002E506F00042E0FB03E54FF00006E1FB15
:1008E00003569CF0000F18BF4EF0010EA4F1FF0458
:1008F000B6F5007F64F5407404D25FEA4E0E6D4198
:1009000046EB060642EAC62141EA55514FEAC520A8
:1009100040EA5E504FEACE2EB4F1FD0C88BFBCF524
:10092000E06F1ED8BEF1004F08BF5FEA500E50F1D5
:10093000000041EB045170BD06F0004646EA01019B
:1009400040EA020081EA0301B4EB5C04C2BFD4EBCD
:100950000C0541EA045170BD41F480114FF0000EC6
:10096000013C00F3AB8014F1360FDEBF002001F034
:10097000004170BDC4F10004203C35DA0C341BDCAE
:1009800004F11404C4F1200500FA05F320FA04F080
:1009900001FA05F240EA020001F0004221F00041B4
:1009A00010EBD37021FA04F642EB06015EEA430E27
:1009B00008BF20EAD37070BDC4F10C04C4F1200557
:1009C00000FA04F320FA05F001FA04F240EA02000A
:1009D00001F0004110EBD37041F100015EEA430EDB
:1009E00008BF20EAD37070BDC4F1200500FA05F2FB
:1009F0004EEA020E20FA04F301FA05F243EA02037A
:100A000021FA04F001F0004121FA04F220EA020088
:100A100000EBD3705EEA430E08BF20EAD37070BDCE
:100A200094F0000F0FD101F00046400041EB0101AE
:100A300011F4801F08BF013CF7D041EA060195F090
:100A4000000F18BF704703F00046520043EB03034A
:100A500013F4801F08BF013DF7D043EA0603704737
:100A600094EA0C0F0CEA135518BF95EA0C0F0CD042
:100A700050EA410618BF52EA4306D1D181EA030188
:100A800001F000414FF0000070BD50EA410606BF82
:100A90001046194652EA430619D094EA0C0F02D1C7
:100AA00050EA013613D195EA0C0F05D152EA03360C
:100AB0001CBF104619460AD181EA030101F000412A
:100AC00041F0FE4141F470014FF0000070BD41F073
:100AD000FE4141F4780170BD70B54FF0FF0C4CF44D
:100AE000E06C1CEA11541DBF1CEA135594EA0C0F6C
:100AF00095EA0C0F00F0A7F8A4EB050481EA030EB9
:100B000052EA03354FEA013100F088804FEA03339F
:100B10004FF0805545EA131343EA12634FEA02226D
:100B200045EA111545EA10654FEA00260EF000412E
:100B30009D4208BF964244F1FD0404F5407402D280
:100B40005B084FEA3202B61A65EB03055B084FEA11
:100B500032024FF480104FF4002CB6EB020E75EB0E
:100B6000030E22BFB61A754640EA0C005B084FEA36
:100B70003202B6EB020E75EB030E22BFB61A7546B3
:100B800040EA5C005B084FEA3202B6EB020E75EBFE
:100B9000030E22BFB61A754640EA9C005B084FEA76
:100BA0003202B6EB020E75EB030E22BFB61A754683
:100BB00040EADC0055EA060E18D04FEA051545EA72
:100BC00016754FEA06164FEAC30343EA52734FEA1B
:100BD000C2025FEA1C1CC0D111F4801F0BD141EA94
:100BE00000014FF000004FF0004CB6E711F4801FF9
:100BF00004BF01430020B4F1FD0C88BFBCF5E06FD9
:100C00003FF6AFAEB5EB030C04BFB6EB020C5FEAE8
:100C1000500C50F1000041EB045170BD0EF0004E3D
:100C20004EEA113114EB5C04C2BFD4EB0C0541EA6F
:100C3000045170BD41F480114FF0000E013C90E66C
:100C400045EA060E8DE60CEA135594EA0C0F08BF30
:100C500095EA0C0F3FF43BAF94EA0C0F0AD150EA2F
:100C600001347FF434AF95EA0C0F7FF425AF1046C2
:100C700019462CE795EA0C0F06D152EA03353FF4EA
:100C8000FDAE1046194622E750EA410618BF52EA67
:100C900043067FF4C5AE50EA41047FF40DAF52EA3B
:100CA00043057FF4EBAE12E74FEA410212F5001262
:100CB00015D211D56FF47873B3EB625212D94FEAA3
:100CC000C12343F0004343EA505311F0004F23FA8D
:100CD00002F018BF404270474FF00000704750EAE2
:100CE000013005D111F0004008BF6FF0004070479F
:100CF0004FF00000704700BF002103E00A4B5B5833
:100D00004350043109480A4B42189A42F6D3094A23
:100D100002E0002342F8043B074B9A42F9D301F06A
:100D20006DFA01F025F970470C420108000000201F
:100D3000C0000020C00000209C2F0120FEE7000022
:100D40002DE9F04F2DED068B40F2C003C2F20003F7
:100D500091ED004A90ED005A40F2D402F7EE007A8D
:100D6000D1ED013AC2F2000293ED006AD0ED014AE2
:100D7000D2ED005A35EE275A93ED017A34EE274A28
:100D8000D2ED016A77EEE44A77EEE37AF0EE463A86
:100D9000E5EE253AA4EE256AF0EE475AE4EEA65AAF
:100DA000A7EEA67A8FB0BDEEC66ABDEEC77ABDEEDD
:100DB000E35AFDEEE55A15EE107A15EE906A17EE3D
:100DC000102A079116EE101AC6EB020BCB1B83EA12
:100DD000E371A1EBE3718BEAEB72A2EBEB7202928F
:100DE0008A42B8BF0A460AEE102AB8EECAAAB7EE7F
:100DF000008A88EE0AAA0391039A069040F2E00462
:100E0000C2F200044FF0000A1FFA87F91FFA86F8B1
:100E100016EE103A9F42ACBF4FF0FF330123089308
:100E200017EE101A029B8E42ACBF4FF0FF3101212A
:100E30009A42D8BF03EBD37540F2D003C2F200034D
:100E400009911B68C8BF1146227AD8BF6D108DED7D
:100E5000046A8DED057ADFED519AD4BF6D424D10D5
:100E600003EB820BBEEE009A03EE90AAF8EEE36A63
:100E70000AF1010A66EE8A6A38EE666A92B106984D
:100E800007995A460023F1EC017AB0EC017A67EE3B
:100E9000A67A0133E7EE067AE2EC017A94F808E0EC
:100EA0007345F0DBDBED027A4846F0EE498A4146B5
:100EB00057EE898A00F03CFE07EE900AF4EEE78ACE
:100EC000F1EE10FA45DD63680AA859469847DDED52
:100ED0000A6A9DED0B7ADDED0C7AF4EEC86AF1EE4C
:100EE00010FAB4EEC87A88BFF0EE486AF1EE10FA54
:100EF000F4EEC87A88BFB0EE487AF1EE10FAF5EE5B
:100F0000C06A88BFF0EE487AF1EE10FAB5EEC07A0A
:100F1000B8BFF0EE696AF1EE10FAF5EEC07AB8BF2C
:100F2000B0EE697AF1EE10FAB8BFF0EE697A8DEDA5
:100F30000B7ACDED0C7A0BAB93E80300CDED0A6A8A
:100F40008DE803000A9B4846414618EE902A00F0BF
:100F50009DFD0599049A8E4208BF974219D00399C6
:100F60004B429D42C5BF089A0299029ABF18C3BF5F
:100F70000A461FFA87F9C1EB05032B46954205DAAD
:100F80000999039A0E4413441FFA86F8227A1D46E3
:100F90006AE70FB0BDEC068BBDE8F08F00000000E3
:100FA00010B540F2EC04C2F200042378012B10D0FB
:100FB00040F2E002C2F2000240F2D003C2F20003AB
:100FC000127A014692001868FFF7FCF8012323709B
:100FD00010BD40F2D003C2F200030146BDE810404C
:100FE0001868FFF7ADBE00BF38B540F2EC04C2F29E
:100FF000000405462378012B10D040F2E002C2F233
:10100000000240F2D003C2F20003127A01469200BD
:101010001868FFF7D7F80123237038BD40F2D004D9
:10102000C2F2000401462068FFF78AFE40F2E003A6
:10103000C2F2000320681A7A29469200BDE83840BF
:10104000FFF7C0B810B540F2EC04C2F200042378F8
:10105000012B10D040F2E002C2F2000240F2D003B5
:10106000C2F20003127A014692001868FFF7AAF84C
:101070000123237010BD40F2D003C2F200030146E9
:101080001868FFF75DFE0023237010BD2DE9F04FB7
:101090002DED048BABB040F2C0030A9291ED004AF3
:1010A000C2F2000340F2D402F7EE008A93ED007A18
:1010B000C2F2000292ED006A34EE284A0A9C0890BF
:1010C000F0EE472AE4EE062AD4ED004A74EEA84A70
:1010D000B0EE624AF0EE472AE4EE862A90ED005A1E
:1010E000D1ED015AD3ED017A35EE285AD2ED016ADD
:1010F00078EEE55AF0EE624AF0EE472AE5EE062A6F
:10110000B0EE676AA5EEA66A94ED013AD0ED013A19
:1011100038EEC33AF0EE465A78EEE33AB0EE676A3C
:10112000B0EE625AA3EE266AF0EE672AE3EEA62A34
:10113000FDEEE55ABDEEC66ABDEEC44AFDEEE44AD8
:1011400040F2CC00FDEEE26A15EE908A16EE10AA8F
:101150000991C2F2000040F2C801BDEEC55A16EE78
:1011600090BA14EE102A14EE909AFDEEE77AC2F2CD
:101170000001BDEEC77A15EE103A04680968D04543
:10118000B4BF404650464A45B4BF15464D46584543
:10119000B4BF8446DC4617EE107A17EE900A9D42E3
:1011A000A8BF1D46BD42B8BF3D46084417EE901A81
:1011B00010958C45B8BF8C46551B27441099039059
:1011C000C8EB0A0405FB04F4C2EB09054A45ACBFB1
:1011D00016464E46591A1295109D02919E42B8BF6E
:1011E0001E460399D21AC9EB0303D045ACBF404653
:1011F000504611921393CAEB0B02C5EB0903129DE3
:101200005845B8BF584603FB02F30139C8EB0C023E
:101210008842B8BF014602FB0544029814910D9420
:10122000CBEB0801119C00FB01F1013FCBEB0C0063
:10123000BE42A8BF3E4600FB041103960C91139DCD
:10124000CAEB0C0202FB0533149D0E93C8EB0B0492
:10125000AC45CAEB0808CBEB0A0A0494CDF814801D
:10126000CDF818A000F3DB80139C1299119D0D9A04
:10127000CDF82CC021440D441A44159543460C9CCE
:10128000049D534440F2E00B14441D449FED669AC4
:101290000F940795C2F2000B109D039CA54200F32A
:1012A000A6800B980F9F0C9E0D9CAA460E9D1FFAC0
:1012B00080F945EA0403334300F18B8002EE907A13
:1012C000B8EEE25A03EE104A88EE855A9BF80830D1
:1012D00007EE105A02EE906AB8EEC36AF8EEC75AEB
:1012E000F8EEE27A25EE066A65EE255A25EE275AD3
:1012F000ABB11AA800EB830E08A807C81AABF1EC33
:10130000017AF0EC016A67EEA57AB2EC017AE6EEBA
:10131000867AE7EE057AE3EC017A7345EFD1DDEDED
:101320001C7A1FFA8AF8BEEE008A4046494617EE3C
:10133000888A00F0FDFB03EE100AB4EEC38AF1EEDA
:1013400010FA46DDDBF8043016A81AA99847DDED3F
:10135000166A9DED177ADDED187AF4EEE86AF1EE83
:1013600010FAB4EEE87A88BFF0EE686AF1EE10FA8F
:10137000F4EEE87A88BFB0EE687AF1EE10FAF5EE96
:10138000C06A88BFF0EE687AF1EE10FAB5EEC07A66
:10139000B8BFF0EE496AF1EE10FAF5EEC07AB8BFC8
:1013A000B0EE497AF1EE10FAB8BFF0EE497A8DED61
:1013B000177ACDED187A17AB93E80300CDED166AD6
:1013C0008DE80300169B4046494618EE102A00F0AF
:1013D0005DFB0599069A049B07980C4403990AF152
:1013E000010A514515441E440744BFF662AF0B9CE9
:1013F0000D9D01340B94129C25440D95139C0E9D5C
:1014000025440E95119C0C9D25440C95159C0F9D13
:1014100025440F950B9C149DA542BFF63DAF2BB004
:10142000BDEC048BBDE8F08F0000000090ED007A69
:10143000D0ED016A92ED005AD1ED017A37EE455AAE
:1014400077EEE67A10B4D2ED015A91ED006A40F2DF
:10145000000367EE857A75EEE66A36EE477AC2F2E9
:101460000003E6EE877A1C78012C0B46F5EEC07A75
:101470000BD0F1EE10FA18D440F2DC01C2F20001F8
:10148000097829B15DF8044B7047F1EE10FA05DDDB
:1014900011465DF8044B1A46FFF7F8BD40F2DC0137
:1014A000C2F2000109780029ECD119465DF8044B1D
:1014B000FFF7ECBDF8B540F2EC04C2F200040746B9
:1014C0002578022D14D040F2E006C2F2000640F268
:1014D000D003C2F20003327A1B6815FB02F03946D2
:1014E000920003EB80000135FEF76CFE2570F8BD1D
:1014F00040F2D00440F2E005C2F20004C2F200055E
:101500002068297A3A4600EB8101FFF78FFF2A7A9B
:101510002068920039461044BDE8F840FEF752BEFC
:10152000F8B540F2EC04C2F2000407462578022D1B
:1015300038D0032D14D040F2E006C2F2000640F28B
:10154000D003C2F20003327A1B6815FB02F0394661
:10155000920003EB80000135FEF734FE2570F8BDE4
:1015600040F2D00640F2E005C2F20005C2F20006E9
:10157000297A3368024603EBC10003EB8101FFF7D0
:1015800055FF33682A7A184603EBC2019200FEF732
:1015900019FE2A7A920010443946FEF713FE022300
:1015A0002370F8BD40F2D00540F2E006C2F200061A
:1015B000C2F20005317A28683A4600EB8101FFF754
:1015C00035FF327A26782B6816FB02F0394603EB9A
:1015D000800092000136FEF7F5FD2670F8BD00BFD1
:1015E00070B5D0ED007A2DED028BBFEE007AF4EEEF
:1015F000C77AF1EE10FA86B0044606D4B7EE008A38
:10160000F4EEC87AF1EE10FA03DD06B0BDEC028B01
:1016100070BDD0ED016AF4EEC76AF1EE10FAF4D4B1
:10162000F4EEC86AF1EE10FAEFDC90ED026AB4EE67
:10163000C76AF1EE10FAE8D4B4EEC86AF1EE10FA17
:10164000E3DC40F2C00340F2D402C2F20003C2F273
:10165000000277EE887A78EE666AD3ED005AD2ED12
:10166000004A92ED015A93ED017AE7EEA45AA6EEF4
:10167000857AFCEEE55ABCEEC77A15EE906A17EE55
:10168000105AB6B2ADB2FEEE008A3046294656EE8A
:10169000288A00F04DFA07EE900AF4EEE78AF1EEA0
:1016A00010FAB2DD40F2E003C2F20003214602A8C4
:1016B0005B689847DDED026A9DED037A9DED046A53
:1016C000F4EEC86ADFED1E7AF1EE10FAB4EEC87AD5
:1016D00088BFF0EE486AF1EE10FAB4EEC86A88BF2F
:1016E000B0EE487AF1EE10FAF4EEE76A98BFB0EE89
:1016F000468AF1EE10FAB4EEE77AB8BFF0EE676A08
:10170000F1EE10FAB4EEE78AB8BFB0EE677AF1EE08
:1017100010FAA8BFF0EE487A8DED037ACDED047A89
:1017200003AB93E80300CDED026A8DE80300029B52
:101730003046294618EE902A00F0A8F965E700BF68
:1017400000000000F8B540F2EC04C2F200040746C5
:101750002578022D14D040F2E006C2F2000640F2D5
:10176000D003C2F20003327A1B6815FB02F039463F
:10177000920003EB80000135FEF724FD2570F8BDD3
:1017800040F2D00140F2E002C2F20001C2F20002D7
:101790000868127A00EB8202D0ED006A90ED017ABF
:1017A00097ED005AD2ED017A36EEC55A77EEC77A38
:1017B000D2ED005A97ED016A40F2000365EE277AF8
:1017C00075EEE66A36EE477AC2F20003E6EE877AF5
:1017D0001B78012BF5EEC07A0BD0F1EE10FA16D47F
:1017E00040F2DC03C2F200031B782BB1002323700C
:1017F000F8BDF1EE10FA03DD3946FFF747FCF5E7D7
:1018000040F2DC03C2F200031B78002BEED111463C
:101810003A46FFF73BFCE9E7121A05EE902A5B1AFD
:10182000B8EEE56A07EE903A05EE900AB8EEE77A70
:10183000F8EE656A05EE901A70B4F6EE007A26EEC0
:10184000276A40F2C00067EE277AB8EE657AC2F2E6
:10185000000040F2CC0640F2C805C2F20006C2F217
:10186000000540F2D404C0ED006A80ED017AC2F2B6
:10187000000484ED006AC4ED017A32602B6070BC14
:10188000704700BF2DE9F04341F2A06140F2D00261
:1018900040F2EC0306780569D1B0C0F60101C2F24E
:1018A0000002C2F2000304460DF1400C002051F882
:1018B0002670C2F800C01870E5B1022E35D0E3687A
:1018C000ABB140F2E008C2F200080025236962686B
:1018D00033F81510207AD8F8003000FB0120694653
:1018E00098476846B847E3680135AB42EED851B037
:1018F000BDE8F0836568207AE368022E03FB005997
:1019000028D04D45F3D040F2E008C2F20008D8F8E4
:1019100000302846694698476846B847237A1D44F0
:10192000A945F4D151B0BDE8F083E368207A62683C
:1019300003F10043013B40F2E00835F81330C2F2F6
:10194000000800FB03206946D8F800309847684635
:10195000B847B4E740F2E008C2F20008C0EB090063
:10196000D8F80030694698476846B847C9E700BFCD
:101970002DE9F04F91B00CF0FFFE40F20803C2F2E7
:10198000000346F684051B68C4F201051E214FF0D2
:10199000FF0C4FF4806E4FF4F072002428460C9335
:1019A00000914FF4A073694640F20D1B4FF0040AFA
:1019B00040F243194FF00208052740F2E316CDF834
:1019C00014C0CDF828E00E920F93CDF804B0CDF8F6
:1019D00008A0CDF80C90CDF81080069407940894D8
:1019E00009940B970D9606F029F92846012106F077
:1019F0009DF946F604102146C4F2010006F096F95E
:101A0000012006F015F9012006F0CEF811B0BDE86E
:101A1000F08F00BF10B500204FF41634224600218D
:101A2000CDF20A000FF0F2FD40F20403C2F200030F
:101A300022461868FF21BDE810400FF0E7BD00BF47
:101A400010B540F20804C2F2000440F20403C2F2EE
:101A5000000320681A68186010F1405018BF012078
:101A6000226008F05FFB002006F09EF846F6840036
:101A70002168C4F2010006F007FA012006F0D8F848
:101A80000120BDE8104006F08FB800BF82B070B4EE
:101A90000493DDED045A9FED236ADDED056ADFED69
:101AA000227A9DED067A25EE866A66EEA76AF3EE47
:101AB0000F7A27EE277ABCEEC66AFCEEE66A16EECF
:101AC000103ABCEEC77AC1EB011116EE906A00EB3A
:101AD000011017EE104A23F4FF6140F2040307EEF1
:101AE000102AC2F2000321F00702DFED107A06F49B
:101AF000FC66164304F01F0446EA040167EE277AE9
:101B00001C68450005F1504589B205F5202324F8ED
:101B10001010FCEEE77A70BC17EE902A92B21A8091
:101B200002B07047000078470000FC4400FF7F4788
:101B3000C1EB011100EB0110410001F1504101F531
:101B40002021DFED067A0B889BB206EE903AB8EEC4
:101B5000E67A67EE277A17EE900A704780008037A2
:101B600008B50FF085FCFCE708B50FF02FF8FCE78F
:101B700008B50EF0EDFFFCE708B50FF04DF80FF0DB
:101B80006BFB0A2002F056FBF7E700BF2DE9F0439C
:101B900040F20C1440F2141940F2101740F21816DB
:101BA00040F2F00540F2041883B0C2F20004C2F221
:101BB0000009C2F20007C2F20006C2F20005C2F23A
:101BC0000008206801A96422002301F0A3FA01287B
:101BD000F7D1019B032BF4D8DFE803F00214061EB3
:101BE000D9F8000001F070FF386802F017F830688B
:101BF00002F014F8286802F011F8D8F8000002F09A
:101C00000DF8DEE7386801F05FFF306801F05CFF37
:101C1000286801F059FFD4E7386801F055FF3068B3
:101C200001F052FF286801F04FFFD8F8000001F0E2
:101C30004BFFD9F8000001F0F1FF0EF067FF0EF046
:101C4000F1FE0EF0E9FF0FF007FBBAE72DE9F043D4
:101C500041F2F063C0F6010393E80300B7B08DE8EA
:101C6000030041F2C060C0F601000FF0E1FB002765
:101C700068460FF0DDFB00242646254616AB1D44C2
:101C80004FF48050C4F20100202104F0BBFA002878
:101C9000F6D04FF48050C4F2010004F0F3F9C0B262
:101CA0001B2828703FD04AD95B283BD07F285AD1C7
:101CB00025462646002CE1D04FF480500821C4F27E
:101CC000010004F0DBF90A2002F0B4FA4FF480506E
:101CD0002021C4F2010004F0D1F90A2002F0AAFA8E
:101CE0004FF48050C4F201000821013C04F0C6F911
:101CF0007E2C8CBF4FF000094FF0010925460026CD
:101D0000B9F1000FBAD102A916A800F021FA0446D1
:101D1000029800F059FA0346002852D0204602A942
:101D20009847A5E756BB7E2C8CBF4FF000094FF0BB
:101D3000010925460126B9F1000F9FD1E3E70A28E2
:101D400001D00D280FD101344FF000092F70494602
:101D500025464FF48050C4F2010004F08FF9B9F128
:101D6000000F8BD1CFE7651C7E2D81B28CBF4FF069
:101D700000094FF001092C460026EAE74FF4805095
:101D8000C4F20100202104F03DFA0028F6D04FF4FF
:101D90008050C4F2010004F075F90138C3B2052B7C
:101DA000A6D84FF48050C4F20100202104F02AFA92
:101DB0000028F6D04FF48050C4F2010004F062F91C
:101DC00096E741F2D860C0F601000FF031FB4FE713
:101DD00008B50CF0D1FC0DF0FFFD012005F0E4FE8C
:101DE00008F02AF9012008F09DF9002008F07AFA9D
:101DF0004FF6FF7008F0C8F90020014607F01EFCFE
:101E0000002007F0C5FB0EF00DFE0FF0C3FA0FF037
:101E1000CDFA0FF0EDFA41F2F860C0F60100BDE82E
:101E200008400FF005BB00BF08B54FF48050C4F266
:101E30000100202104F0E6F90028F6D04FF480508C
:101E4000C4F2010004F01EF9C0B208BD2DE9F84348
:101E5000002580460F462C46A94685F00105BC4268
:101E60002CBF002505F00105002D7DD008EB0405F1
:101E70004FF48050C4F20100202104F0C3F900287F
:101E8000F6D04FF48050C4F2010004F0FBF8C0B269
:101E90001B28287028D02AD95B2824D07F285ED11F
:101EA00026462546002CD8D04FF480500821C4F295
:101EB000010004F0E3F80A2002F0BCF94FF480506E
:101EC0002021C4F2010004F0D9F80A2002F0B2F98E
:101ED0004FF48050C4F2010008210026013C04F0B8
:101EE000CDF83546B9E796B901260025B5E70A28A9
:101EF00001D00D2833D185F800900134002101254F
:101F00004FF48050C4F2010004F0B8F8A5E74FF494
:101F10008050C4F20100202104F074F90028F6D0AA
:101F20004FF48050C4F2010004F0ACF80138C3B2A1
:101F3000052B84BF002635468FD84FF48050C4F25D
:101F40000100202104F05EF90028F6D04FF4805003
:101F5000C4F20100002604F095F835467DE700261E
:101F600081B201343546CBE72046BDE8F88300BF97
:101F70002DE9F04385B0FFF72BFF0322012000215C
:101F800000F036FE40F2F403C2F2000318601A6853
:101F90002AB1002118680A460B4600F0A7FE01206E
:101FA0000146002200F024FE40F20013C2F20003BA
:101FB00004460022012004211C6000F019FE40F2BA
:101FC0000C13C2F20003024600201A6007F078FBEF
:101FD00028B142F68073C2F2010301221A7040F266
:101FE000081300240325C2F2000341F68D3041F2AC
:101FF000047101930095234602940394C0F60101F5
:102000008022C0F6000001F0ADFB40F21413C2F2D2
:10201000000341F64D4041F218710095019302947E
:1020200023460394C0F601014FF40072C0F600008D
:1020300040F2101901F096FB0225C2F2000941F6A8
:10204000793041F22871234602940394CDF804902C
:102050000095C0F601018022C0F6000040F2181879
:1020600001F080FBC2F2000841F6713041F2347198
:102070002346009502940394CDF80480C0F6010134
:102080008022C0F6000040F2F00701F06BFBC2F2C4
:10209000000741F6693041F24471234600950294ED
:1020A00003940197C0F601018022C0F6000040F2BF
:1020B000041601F057FBC2F2000641F6613041F20E
:1020C00054712346C0F601018022009502940394C6
:1020D0000196C0F6000001F045FBD9F8000001F0C0
:1020E000F3FCD8F8000001F0EFFC386801F0ECFCDC
:1020F000306801F0E9FC01F02DFE204605B0BDE896
:10210000F08300BF41F26470C0F601000FF090B997
:1021100041F26C7008B5C0F601000FF089F940F289
:102120000C13C2F20003002240F214011868C2F23C
:102130000001134600F0DAFD012807D041F27C705F
:10214000C0F60100BDE808400FF072B908BD00BF3D
:102150002DE9F0030378002B32D04FF00008C14680
:1021600047464646421C05460124272B08BF013638
:1021700014D0222B08BF013710D0202B47EA060CC1
:102180000CD11CF0010C01BF00EB080385F800C066
:10219000A04641F8293008BF09F10109154612F897
:1021A000013B0134002BE0D109F101024FEA89091A
:1021B00000EB080341F809301046BDE8F003704712
:1021C000984699460122F3E738B540F22404C2F25A
:1021D0000004054601462068FEF78EF838B129460E
:1021E000E068FEF789F808B1002038BD012000EB57
:1021F000400004EB8004606838BD00BF4FF46D42BE
:10220000CEF200024FF46053D2F88810C4F20203F9
:1022100041F47001C2F888101968002241F00101F0
:1022200019609A60186843F2100120F08470C2F2BD
:10223000004120F4803018605960196882B021F4A0
:1022400080211960DA60009201921A6842F48032AB
:102250001A601A4603E0009BB3F5A04F09D013683B
:1022600003F400330193009B01330093019B002B87
:10227000F1D04FF46053C4F202031B6813F400332F
:1022800018BF01230193019B012B08D04FF46D432C
:10229000CEF200034FF000629A6002B070474FF434
:1022A0006053C4F202034FF4E042196CC4F200021E
:1022B00041F080511964116841F4404111609A68FD
:1022C0009A609A6842F400429A60996844F619321A
:1022D00041F4A051C0F2407299605A601A6842F00D
:1022E00080721A6019460A684FF460539201C4F272
:1022F0000203F8D54FF47052C4F2020240F20461B6
:1023000011609A6822F003029A609A6842F0020211
:102310009A609A6802F00C02082AFAD1B6E700BF68
:102320004FF46053C4F202039A6802F00C02042ACC
:102330003AD0082A16D04FF41051C0F2F4014FF4ED
:102340006053C4F2020340F23C029868C2F20002F9
:10235000C0F3031040F24C03125CC2F20003D14000
:102360001960704758685A6810F4800F586815BF94
:102370004FF490534FF41053C0F27A03C0F2F403B9
:1023800002F03F02B3FBF2F14FF46053C4F20203D8
:10239000C0F388105B68C3F30143013301FB00F114
:1023A0005B00B1FBF3F1CAE74FF49051C0F27A0140
:1023B000C5E700BF2DE9F843074638200E46904692
:1023C00002F0FEFF044600285DD040F24C13C2F23A
:1023D00000031A686AB325460023012E28BF012690
:1023E000A386E662C4F8308045F8047B284600F0F6
:1023F0002DFB04F1180000F029FB40F29812C2F204
:102400000002E36A116824618B4240F2701088BFB9
:102410001360C6F1020603EB8303C2F2000000EB77
:102420008300A6616462294600F014FB0120BDE828
:10243000F88340F27010C2F2000040F220191C60D4
:10244000C2F2000900F0F6FA40F25015104800F010
:10245000F1FAC2F20005484600F0ECFA284600F016
:10246000E9FA40F23810C2F2000000F0E3FA40F25C
:102470006C1240F29C13C2F20002C2F20003C2F8D6
:1024800000901D60A7E74FF0FF30BDE8F88300BF64
:1024900084010020F8B540F2641540F24C14C2F2F9
:1024A0000005C2F200042E6823680644181D0F467A
:1024B00000F0FAFA2A682168964235BF40F29C1271
:1024C00040F26C12C2F20002C2F200024E601068CA
:1024D000043100F0CFFA37B1216838461831BDE831
:1024E000F84000F0C7BAF8BD2DE9F04F40F23816B9
:1024F000C2F2000685B0336840F29817002B00F056
:10250000E180C2F2000740F27018B946C2F200083A
:1025100002F030FEF368DC6804F1180000F0C4FA41
:10252000251D002002F05AFE284600F0BDFAE36A9D
:102530003A6803EB8300934208EB8000294688BF8A
:10254000C9F8003000F086FA3368002BE0D140F281
:102550006812C2F20002039201F0B8FC039C40F240
:102560006416236840F23412C2F20002C2F200067E
:10257000C01A40F29C14019240F26C1B40F2981970
:102580001060C2F20004326802940346C2F2000BEB
:10259000C2F20009002B47D0581E019B0132326065
:1025A0001860002A5FD0DBF800100B6840F26C1551
:1025B000C2F20005002B64D0CB68D3F80CA0DAF887
:1025C00004108A4208D25CE0DB683268D3F80CA0C1
:1025D000DAF80410914222D80AF1040402F0CAFD8C
:1025E000204600F061FADAF828200AF118000AB152
:1025F00000F05AFA002002F0F1FDDAF82C303A68C7
:1026000003EB8300934208EB8000214688BFC9F8A2
:10261000003000F01FFA2B681A68002AD4D1019C00
:1026200032682368002BB7D13968039C22608A0086
:10263000541840F2701058F82440C2F200002CBB2D
:1026400071B14A1E02EB820450F82440DCB9002A22
:102650003FD08A1E02EB820350F823309BB93A60C8
:1026600005B0BDE8F08F029CDBF8003021682360E4
:102670000B68CBF8001040F26C15C2F20005002B7D
:102680009AD1034686E711463A6092000A4408EB65
:10269000820808F10802D8F804305B689342C8F851
:1026A000043004BF5B68C8F80430DB6840F24C12A9
:1026B0001846C2F20002016B13601B68984705B010
:1026C000BDE8F08F40F27018C2F20007C2F20008B5
:1026D0003DE71A46C3E700BF38B5C368DC6804F1BC
:1026E0001805284600F0E0F940F238102946C2F2F9
:1026F000000000F0AFF940F24C13C2F20003E06AB0
:102700001B68DB6A984234BF0020012038BD00BF3F
:1027100010B51C2002F054FE044620B1002340F8FE
:10272000043B00F087F9204610BD00BF2DE9F843B7
:1027300011F07F4F0C46064617469846DDF820906C
:1027400016D111B902F016FDFEE702F0CDF910B96D
:10275000B9F1000F0FD101F0B1FB3568B8F1000FEE
:102760000CD12C420ED087B125EA040434600CE071
:1027700002F000FDFEE702F0FDFCFEE704EA0503BF
:102780009C42F0D0B9F1000F04D101F07DFC284645
:10279000BDE8F883002F14BF4FF0A0614FF08061B7
:1027A00014BF4FF080730023B8F1000F08BF194623
:1027B0004A462143301D02F01FF801F065FC08B9BC
:1027C00002F0CCFC02F008FA830148BF20F07F45FC
:1027D000DDD402F0F3FC3568B8F1000F08D12C42CB
:1027E00003D017B125EA0404346002F0FBFCCEE705
:1027F00004EA05039C42F8D1F3E700BF11F07F4FD4
:1028000070B50C46064602D002F0B4FCFEE702F0BA
:10281000D5FC356825EA0404346002F0E3FC284660
:1028200070BD00BF11F07F4F70B50E46054602D057
:1028300002F0A0FCFEE702F09DFC2C6824EA0606EC
:102840002E6002F0CBFC204670BD00BFF8B511F041
:102850007F450E46044602D002F08CFCFEE701F0F4
:102860002DFB21682069314304F10C06864221606A
:102870000DD120E0194207D0D20141F0007148BFCC
:102880001D4302F08FF82168BE420DD0384690E813
:10289000840012F0806F22F07F43EBD001EA030E38
:1028A0009E45E9D0BE42F1D1ED432940216001F0BF
:1028B000EBFB2068F8BD4FF0FF35F6E712F07F4FD5
:1028C000F8B5154604460E461F4619D112B902F056
:1028D00051FCFEE702F008F9A8B9002F44D101F03D
:1028E000EDFA2368314620461E43FFF7AFFF05EAA5
:1028F0000601A94234D0266801F0C6FB3046F8BD77
:1029000002F038FCFEE701F0D9FA23683146204690
:102910001E43FFF79BFF05EA0601A94220D0002FC6
:10292000E9D03A46201D45F0A06101F065FF01F0B5
:10293000ABFB08B902F012FC02F04EF9830148BF6C
:1029400020F07F46DAD402F039FC266805EA060357
:10295000AB4204BF26EA0505256002F043FCCDE743
:1029600023680B402360C7E702F004FCFEE700BFCA
:1029700038B5044601F0A2FA63687BB1206904F11E
:102980000C05A84203D110E02069A8420DD04FF0F9
:10299000007102F007F86368002BF5D1204602F0C1
:1029A0003FFDBDE8384001F06FBB02F0E3FBFEE7FE
:1029B000F8B511F07F450E46044602D002F0DAFB6E
:1029C000FEE701F07BFA21682069314304F10C062F
:1029D000864221600DD120E0194207D0D20141F09A
:1029E000007148BF1D4301F0DDFF2168BE420DD0DC
:1029F000384690E8840012F0806F22F07F43EBD0DD
:102A000001EA030C6345E9D0BE42F1D1ED43294010
:102A10002160BDE8F84001F037BB4FF0FF35294099
:102A20002160BDE8F84001F02FBB00BF00B1806914
:102A3000704700BF00F108034FF0FF3100228160B2
:102A400080E80C00C3600361704700BF002303618E
:102A5000704700BF43689A6810B404688A609A6837
:102A60004B60013451609960086104605DF8044B6B
:102A7000704700BF30B40D686B1C18BF00F108022E
:102A800001D10EE01A4653681C68A542FAD20468C8
:102A90004B60013499608A6051600861046030BC09
:102AA000704702695368F2E742688168036910B4AD
:102AB000916081685C684A601A68844208BF596006
:102AC000013A002101615DF8044B1A60104670471D
:102AD00030B40568034665B1026CC46840681444AC
:102AE0008442DC6028BFDD60084630BCD968FDF751
:102AF00069BB30BC704700BF38B5044602F05EFBCE
:102B0000A36C002B14DD636A93B104F1240507E084
:102B1000A36C013BA364A36C002B09DD636A3BB18A
:102B2000284601F0F9FE0028F2D001F0C7FFEFE7D8
:102B30004FF0FF33A36402F055FB02F03FFB636CE0
:102B4000002B14DD236993B104F1100507E0636CD9
:102B5000013B6364636C002B09DD23693BB12846AC
:102B600001F0DAFE0028F2D001F0A8FFEFE74FF005
:102B7000FF336364BDE8384002F034BB70B50446EF
:102B80000D4688B302F01AFB206CE26B236802FB4F
:102B900000F2101A1E18002198184FF0FF32A1639E
:102BA000E66062646060A360A2648DB923691BB9AA
:102BB00002F018FB012070BD04F1100001F0ACFE22
:102BC0000128F5D102F0CAFA02F00CFB012070BD19
:102BD00004F11000FFF72EFF04F12400FFF72AFF95
:102BE00002F000FB012070BD02F0C4FAFEE700BF56
:102BF000F8B505460E461746002831D0542002F09D
:102C0000DFFB044660B306FB05F0013002F0D8FBA1
:102C1000206010B3E563266402F0D0FA206CE16B0B
:102C2000236801FB00F1081A1D18002258184FF004
:102C3000FF31A263A36061646060A16404F11000CD
:102C4000E560FFF7F7FE04F12400FFF7F3FE02F062
:102C5000C9FA84F850702046F8BD204602F0E0FB27
:102C600002F088FAFEE700BFF8B505460E460028D8
:102C700033D0884202D202F07DFAFEE7542002F0FF
:102C80009FFB044678B3012002F09AFB206038B322
:102C90000027E563276402F091FA216CE26B236858
:102CA000A76302FB01F2511A581899184FF0FF322E
:102CB000A36062646160A264E06004F11000FFF749
:102CC000B9FE04F12400FFF7B5FE02F08BFA0223EF
:102CD00084F85030A6632046F8BD02F04BFAFEE7B8
:102CE000204602F09DFB02F045FAFEE72DE9F04F89
:102CF00085B00446894601921F46002800F0E58011
:102D0000002900F02381022F57D001F0EDFE18B901
:102D1000019B002B40F0178102F050FAA26BE36B8D
:102D20004FF0000B9A42DA4604F1100504F1240634
:102D30004FF0FF3871D3022F00F0DA80019800289D
:102D400000F0CF80BBF1000F00F0BB8002F04AFA28
:102D500001F0B4F802F032FA636C013308BFC4F832
:102D600044A0A36C013308BFC4F848A002F03AFAAB
:102D700002A801A901F068FE002840F0A98002F035
:102D80001DFAA26BE36B9A425AD002F02BFA02F0C2
:102D900015FAA36C002B06DC15E0A36C013BA364C1
:102DA000A36C002B0FDD636A6BB1304601F0B4FDFC
:102DB0000028F2D001F082FEEFE7E36B012BA4D0F4
:102DC00002F0D8F9FEE7C4F8488002F00BFA02F0EE
:102DD000F5F9636C002B12DD236943B90FE0636CD6
:102DE000013B6364636C002B09DD22693AB128461C
:102DF00001F092FD0028F2D001F060FEEFE7C4F888
:102E0000448002F0EFF901F03FF902F0D7F9A26B2C
:102E1000E36B9A424FF0010B8DD2226C002A69D0ED
:102E2000002F78D14946A068FDF7CCF9A168236C42
:102E300062680B449342A36062D32368A3605FE09F
:102E400002F0D0F92846019901F08EFC02F0B6F9A3
:102E5000A36C002B06DC0FE0A36C013BA364A36C06
:102E6000002B09DD636A3BB1304601F055FD0028B7
:102E7000F2D001F023FEEFE7C4F8488002F0B2F987
:102E800002F09CF9636C002B06DC0FE0636C013BE5
:102E90006364636C002B09DD23693BB1284601F0B4
:102EA0003BFD0028F2D001F009FEEFE7C4F84480B2
:102EB00002F098F901F0E8F80028A6D102F04EF9E6
:102EC000A3E702A801F0AEFD40E702F053F9FEE7E8
:102ED0002046FFF711FE01F0D7F8002005B0BDE84D
:102EE000F08F009002F07EF9009805B0BDE8F08FF9
:102EF000226C82B925681DB9606801F043FE6560E7
:102F0000A26B636A0132A2633BBB02F06BF9012042
:102F100005B0BDE8F08F4946E068FDF753F9236C32
:102F2000E26821685B421A448A42E2603EBF6268FE
:102F30009B18E360022FE3D1A36B002BE0D0A36BBF
:102F4000013BA363DCE702F015F9FEE7036C002BFD
:102F50003FF4D9AE02F00EF9FEE704F1240001F0CF
:102F6000DBFC0128D1D102F0F9F8CEE770B50646B6
:102F7000542002F025FA0446E8B100254FF0FF3353
:102F800001228563C263436480F8506083644560B6
:102F900005608560C56005641030FFF74BFD04F1E6
:102FA0002400FFF747FD204629462A462B46FFF717
:102FB0009DFE204670BD02F0DDF8FEE738B5044600
:102FC00030B1456801F08AFD854204D0002038BD4B
:102FD00002F0D0F8FEE7E1680139E16009B10120B3
:102FE00038BD20460A460B46FFF780FE012038BD5B
:102FF0002DE9F04104460E4690461D4600282FD08C
:1030000000296FD0022D10D002F0B4F902F0B2F80E
:10301000A26BE36B9342074698BF00240BD8384657
:1030200002F0DCF82046BDE8F081E36B012B33D0E1
:1030300002F0A0F8FEE7226CAAB92568002D4CD05A
:10304000A36B0133A363A36C01331BD0A36C0133C7
:10305000A3643846012402F0C1F82046BDE8F0819F
:1030600002F088F8FEE705BB3146A068FDF7AAF834
:10307000A168236C62680B449342A360E0D3236889
:10308000A360DDE7636A002B32D13846012402F0E9
:10309000A5F82046BDE8F08102F06CF902F06AF86C
:1030A000A26B226C0746002AC7D03146E068FDF7C4
:1030B00089F8236CE26821685B421A448A42E26024
:1030C0003EBF62689B18E360022DB9D1A36B002B51
:1030D000B6D0A36B013BA363B2E7606801F052FD79
:1030E0006560ADE7036C002B8CD002F043F8FEE77F
:1030F00004F1240001F010FC0028C6D00124B8F12E
:10310000000F8CD03846C8F8004002F067F820461F
:10311000BDE8F0812DE9F04F85B004468846019264
:103120009A46002800F0DC80002900F00B8101F0B5
:10313000DBFC18B9019B002B40F0018102F03EF846
:10314000A36B4FF0000BD94604F124054FF0FF3775
:1031500004F11006002B6FD10198002800F0D480F4
:10316000BBF1000F00F0B88002F03CF800F0A6FEC2
:1031700002F024F8636C013308BFC4F84490A36CD8
:10318000013308BFC4F8489002F02CF802A801A946
:1031900001F05AFC002840F0AE8002F00FF8A36B5B
:1031A000002B62D102F01EF82368002B00F09B80F8
:1031B0002846019901F0D8FA02F000F8A36C002B20
:1031C00006DC0FE0A36C013BA364A36C002B09DDBC
:1031D000636A3BB1284601F09FFB0028F2D001F062
:1031E0006DFCEFE7A76401F0FDFF01F0E7FF636C02
:1031F000002B12DD236943B90FE0636C013B63646C
:10320000636C002B09DD22693AB1304601F084FB82
:103210000028F2D001F052FCEFE7676401F0E2FF12
:1032200000F032FF08B901F099FF01F0C7FFA36B6E
:103230004FF0010B002B8FD041462046E568FFF789
:1032400047FCBAF1000F66D1A26B2368013AA26372
:1032500013B901F043FC60602369002B68D101F0D1
:10326000C1FF012005B0BDE8F08F01F0BBFF01F008
:10327000A5FFA36C002B06DC0FE0A36C013BA3644D
:10328000A36C002B09DD636A3BB1284601F044FBC7
:103290000028F2D001F012FCEFE7A76401F0A2FFD2
:1032A00001F08CFF636C002B06DC0FE0636C013BCC
:1032B0006364636C002B09DD23693BB1304601F088
:1032C0002BFB0028F2D001F0F9FBEFE7676401F077
:1032D00089FF00F0D9FEA8E702A801F0A3FB43E7AD
:1032E00001F048FFFEE701F069FF606801F00EFCA5
:1032F00001F078FF5CE72046FFF7FEFB00F0C4FE1C
:10330000002005B0BDE8F08F009001F06BFF009841
:1033100005B0BDE8F08F636AE560002B9FD004F133
:10332000240001F0F9FA002899D001F017FF96E780
:1033300004F1100001F0F0FA012890D1F5E701F056
:1033400019FFFEE7036C002B3FF4F1AE01F012FF12
:10335000FEE700BF70B504460D4680B1466801F037
:10336000BDFB86420ED000210B462A462046FFF7C1
:10337000D1FE012802BFE3680133E36070BD01F0B4
:10338000F9FEFEE7E3680133E360012070BD00BF92
:10339000F8B504460E46154668B111B301F0EAFFD0
:1033A00001F0E8FEA36B074643B91C46384601F01E
:1033B00015FF2046F8BD01F0DDFEFEE73146204650
:1033C000FFF786FBA36B013BA363636C01330ED055
:1033D000636C013363643846012401F0FFFE20462C
:1033E000F8BD036C002BD9D001F0C4FEFEE72369C1
:1033F000002BF0D004F1100001F08EFA0028EAD082
:10340000002DE8D0012438462C6001F0E7FE20466C
:10341000F8BD00BF2DE9F04104460E4668B1E1B1A8
:1034200001F0A8FF01F0A6FEA56B804645B9404615
:1034300001F0D4FE2846BDE8F08101F09BFEFEE7D6
:10344000E76831462046FFF743FB01254046E76029
:1034500001F0C4FE2846BDE8F081036C002BDFD0EC
:1034600001F088FEFEE700BF10B5044630B101F060
:10347000A5FEA46B01F0B6FE204610BD01F07AFE59
:10348000FEE700BF10B5044640B101F097FEA36B04
:10349000E46BE41A01F0A6FE204610BD01F06AFEBE
:1034A000FEE700BF08B508B1806B08BD01F062FE01
:1034B000FEE700BF10B5044680B340F2A013C2F28D
:1034C00000035A6890422CD0DA6890422ED05A6994
:1034D000904230D0DA6990421BD05A6A904231D083
:1034E000DA6A90422CD05A6B90420DD0DA6B90423F
:1034F00008BF072209D0206808B101F091FF2046DB
:10350000BDE8104001F08CBF0622002143F83210C4
:10351000F1E70322002143F83210ECE701F02AFE24
:10352000FEE70022002143F83210E4E701220021E7
:1035300043F83210DFE70222002143F83210DAE7C5
:103540000522E2E70422E0E7C06C7047C1647047DF
:1035500090F85000704700BF08B528B1806BD0F1DB
:10356000010038BF002008BD01F004FEFEE700BFE7
:1035700008B528B1826BC06B131A5842584108BD78
:1035800001F0F8FDFEE700BF40F2A013C2F2000315
:1035900010B41A688AB19A68BAB11A69BAB19A694C
:1035A000BAB11A6ABAB19A6ABAB11A6B22B19A6BF5
:1035B000AAB15DF8044B7047062203EBC20443F83E
:1035C000321060605DF8044B70470122F5E702227B
:1035D000F3E70322F1E70422EFE70522EDE70722F4
:1035E000EBE700BF40F2A013C2F200035A68824228
:1035F0001CD0DA6882421BD05A6982421AD0DA693A
:10360000824219D05A6A824218D0DA6A824217D0AE
:103610005A6B824205D0DA6B824208BF072201D082
:1036200070470622002143F8321070470022F9E764
:103630000122F7E70222F5E70322F3E70422F1E78C
:103640000522EFE738B504460D4601F0B7FD636C7F
:10365000013304BF00236364A36C013304BF002360
:10366000A36401F0BFFDA36B23B9294604F1240034
:1036700001F018F901F0A2FDA36C002B14DD636AC0
:1036800093B104F1240507E0A36C013BA364A36C90
:10369000002B09DD636A3BB1284601F03DF90028A3
:1036A000F2D001F00BFAEFE74FF0FF33A36401F023
:1036B00099FD01F083FD636C002B14DD236993B148
:1036C00004F1100507E0636C013B6364636C002B3D
:1036D00009DD23693BB1284601F01EF90028F2D02C
:1036E00001F0ECF9EFE74FF0FF336364BDE83840D9
:1036F00001F078BD38B540F20025C2F20005002483
:1037000028191434FFF796F9642CF9D140F2942566
:10371000C2F2000540F2A8242846C2F20004FFF7D6
:1037200089F92046FFF786F940F27020C2F20000C6
:10373000FFF780F940F2EC10C2F20000FFF77AF9CF
:1037400040F2C020C2F20000FFF774F940F2E0122C
:1037500040F28C23C2F20002C2F2000315601C602A
:1037600038BD00BF2DE9F84F0AAF06460D4690461A
:103770009A4697E8800A002800F0AE80042F02D90C
:1037800001F0F8FCFEE74C2001F01AFE0446002888
:1037900000F0C180BBF1000F00F0B180C0F830B084
:1037A00058464FEA880B5A46A5210DF02FFF2A787C
:1037B000236B84F8342008F1804808F1FF382A7818
:1037C00003EB880323F0070B2AB36B7884F83530BA
:1037D0006B7803B3AB7884F83630AB78DBB1EB7839
:1037E00084F83730EB78B3B12B7984F838302B7903
:1037F0008BB16B7984F839306B7963B1AB7984F82C
:103800003A30AB793BB1EB7984F83B30EB7913B1CB
:103810002B7A84F83C30002304F1040884F83D300E
:103820004046E762A764FFF711F904F11800FFF7BB
:103830000DF9C7F1050324616462584631465246CA
:10384000A36101F065FC2060B9F1000F01D0C9F857
:10385000004001F0B3FC40F26823C2F2000340F2E2
:103860006C261A68C2F2000601321A603268002A19
:103870003AD040F2E415C2F200052B6823B9336850
:10388000DB6A9F4228BF346040F29020C2F2000001
:1038900040F2D422C2F200020168E36AD2F800E0EA
:1038A00001317345016040F2002088BF1360C2F20D
:1038B000000003EB830300EB830021644146FFF724
:1038C000C9F801F08FFC2B681BB13368DB6A9F429B
:1038D00005D80120BDE8F88F01F04CFCFEE701F0AF
:1038E0003DFC0120BDE8F88F34601B68012B40F2DD
:1038F000E41501D1FFF7FEFEC2F20005C4E74FEA6E
:10390000880B584601F05CFD206300287FF44BAF24
:10391000204601F085FD4FF0FF30BDE8F88F00BF75
:1039200038B5044601F04AFC002C53D0251D28462A
:10393000FFF7BAF8A36A1BB104F11800FFF7B4F857
:1039400040F2EC102946C2F20000FFF783F840F283
:10395000E81240F29023C2F20003C2F2000219689A
:103960001068013101301960106001F03BFC40F239
:10397000E413C2F200031B68F3B140F26C23C2F2FD
:1039800000031B689C4218D040F2E013C2F200030F
:103990001A6812683AB940F25003C2F200034FF0BD
:1039A000FF321A6038BD1B68DB68DA6840F25003EA
:1039B0005268C2F200031A6038BD40F26423C2F2BA
:1039C00000031B6813B101F0D5FBFEE7BDE83840EA
:1039D00001F0C4BB40F26C23C2F200031C68A5E7EF
:1039E00010B5044601F0EAFB24B1E46A01F0FAFBE9
:1039F000204610BD40F26C23C2F200031C68E46A4A
:103A000001F0F0FB204610BD0429F8B50D46044630
:103A100036D801F0D3FB002C35D0A26C954226D0CD
:103A200040F26C23C2F2000325D919688C4208BF0A
:103A3000002605D01B68DE6AB54234BF0026012689
:103A4000E36AA5649A42A26908BFE562002AA4BF9E
:103A5000C5F10505A56140F2002503EB8303C2F221
:103A60000005626905EB83039A4218D08EB9BDE860
:103A7000F84001F0B7BB1E68A31B5E425E41DFE762
:103A800001F078FBFEE740F26C23C2F200031C68F1
:103A9000C3E701F063FBBDE8F84001F0A3BB271DBD
:103AA0003846FFF701F840F2D422C2F20002E36A7E
:103AB000116803EB83008B4205EB8000394688BF19
:103AC0001360FEF7C7FFD1E7F8B5044640F26C2556
:103AD00001F074FBC2F20005002C49D0271D3846C6
:103AE000FEF7E2FFA36A1BB104F11800FEF7DCFF4A
:103AF00040F2C026C2F2000639463046FEF7AAFF61
:103B000001F070FB2A6840F26C239442C2F2000379
:103B10001FD040F2E413C2F200031B6803B9F8BDE2
:103B200040F2E013C2F200031A6812683AB940F298
:103B30005003C2F200034FF0FF321A60F8BD1B6859
:103B4000DB68DA6840F250035268C2F200031A6080
:103B5000F8BD40F2E412C2F20002116851B140F225
:103B60006423C2F200031B6873B101F003FBFEE79C
:103B70002C68B3E740F26822C2F200023068126893
:103B8000904205D11960F8BDBDE8F84001F0E6BAF1
:103B900040F26423C2F200031968002933D140F2D5
:103BA000D822C2F2000240F2D423C2F20003116014
:103BB000196840F2002201EB8101C2F2000252F8C2
:103BC000211079B91968184611B923E0016809B3C1
:103BD000196801391960196801EB810152F8211047
:103BE0000029F3D01B6803EB830302EB830202F18D
:103BF000080153685B688B42536001D15B68536076
:103C0000DB682B60F8BD40F2D823C2F2000301222A
:103C10001A60F8BD01F0AEFAFEE700BF70B50446C9
:103C2000A0B140F26C25C2F200052B6898420CD07E
:103C300001F0C4FA40F2C0236269C2F200039A4262
:103C400007D0BDE8704001F0CDBA70BD01F092FA26
:103C5000FEE740F27023A26AC2F200039A42F0D05B
:103C6000002AEED1261D3046FEF71EFF40F2D42278
:103C7000C2F20002E36A116840F200208B4288BF62
:103C80001360C2F2000003EB830300EB83003146B4
:103C9000FEF7E0FE2B68E26ADB6A9A42D1D301F0BC
:103CA0005DFACEE7F8B5044688B101F063FB01F098
:103CB00061FA40F2C0236269C2F200039A420646EA
:103CC00008D03046002501F089FA2846F8BD01F0F9
:103CD00051FAFEE740F27020A56AC2F20000854268
:103CE000EFD0002DEDD140F26422C2F20002126842
:103CF0003ABB40F26C23C2F20003E26A1B68DD6A41
:103D0000271DAA42384634BF00250125FEF7CCFE08
:103D100040F2D422C2F20002E36A116840F20020AD
:103D20008B4288BF1360C2F2000003EB830300EBF9
:103D300083003946FEF78EFE304601F04FFA2846E2
:103D4000F8BD04F11801FEF785FE304601F046FA91
:103D50002846F8BDF8B54C2001F032FB0446002897
:103D600000F089804FF4027001F02AFB20630028E4
:103D700000F08580A5214FF402720DF047FC236B03
:103D800000254C21452249264420271D03F50173B7
:103D900084F8361084F8372084F8346084F83500CD
:103DA00084F83850384684F83D50E562A56423F025
:103DB0000706FEF74BFE04F11800FEF747FE052349
:103DC00044F2C1212A46A3613046C0F600012461B5
:103DD000646201F09DF9206001F0F0F940F268237F
:103DE000C2F2000340F26C261A68C2F200060132E9
:103DF0001A603268002A47D040F2E415C2F200058A
:103E00002B681BB93368DB6A03B9346040F2902138
:103E1000C2F2000140F2D422C2F200020868E36A52
:103E2000D2F800E0013073450860206440F20020C1
:103E300088BF1360C2F2000003EB830300EB830032
:103E40003946FEF707FE01F0CDF92B6803B1336860
:103E500000F0D0FE012804460CD101F08BF940F2AD
:103E60008823C2F2000300222C601A60BDE8F840EB
:103E700001F022BA04B1F8BD01F07CF9FEE720465A
:103E8000BDE8F84001F0CCBA34601B68012B40F269
:103E9000E41501D1FFF72EFCC2F20005B6E700BF22
:103EA00008B501F067F940F2E413C2F20003002202
:103EB0001A60BDE8084001F073B900BF40F2642306
:103EC000C2F200031A6801321A60704710B501F09F
:103ED00075F940F28823C2F200031C6801F082F9F0
:103EE000204610BD10B501F045FA01F043F940F24B
:103EF0008823C2F200031C6801F070F9204610BD4F
:103F000040F26823C2F20003186870472DE9F04FB1
:103F100040F26423C2F2000383B01B68002B65D11A
:103F200040F28823C2F2000340F250041A680132C2
:103F30001A60D3F80090C2F20004B9F1000F69D002
:103F40002368994570D340F2E01840F2002640F211
:103F50006C2B40F2D427C2F20008C2F20006C2F273
:103F6000000BC2F2000700252DE040F2E013C2F280
:103F700000031A68D268D2F80CA0DAF804100AF12B
:103F8000040389450193184674D3FEF78DFDDAF8D2
:103F900028100AF1180009B1FEF786FDDAF82C3076
:103FA0003A68019903EB8300934206EB800088BFD7
:103FB0003B60FEF74FFDDBF80000DAF82C10C26A18
:103FC000914228BF0125D8F800201268002ACCD1E0
:103FD0004FF0FF322260DBF80030DB6A03EB830333
:103FE00056F82330012B88BF012507E040F2BC239F
:103FF000C2F2000300251A6801321A6040F2D82389
:10400000C2F200031B68002B18BF0125284603B02D
:10401000BDE8F08F40F2E013C2F200031A681268A4
:1040200062B101F0A7F8FEE740F2002640F26C2BE7
:10403000C2F20006C2F2000B0025CCE740F28C2150
:10404000C2F2000118680C6840F28422C2F2000239
:104050001C6008601168013111601A6812685AB159
:104060001B68DB68DB6840F250045B68C2F2000446
:10407000236065E72160AEE740F25004C2F200041D
:104080004FF0FF3323605BE72DE9F84F40F26424E3
:10409000C2F20004236813B901F06CF8FEE701F0E6
:1040A0008DF82368013B23602368002B48D140F240
:1040B0006823C2F200031B68002B41D040F2702637
:1040C000C2F2000640F2D82540F2D42440F2002982
:1040D00040F26C28B246C2F20005C2F20004C2F2FD
:1040E0000009C2F200081FE0DAF80C30DF6807F1BF
:1040F000040B07F11800FEF7D7FC5846FEF7D4FC76
:10410000FB6A226803EB83009342594609EB800067
:1041100088BF2360FEF79EFCD8F80030F96ADB6A9E
:10412000994224BF01232B603368002BDCD140F27D
:10413000BC24C2F20004236843B92C68012C14D0BB
:10414000002401F04FF82046BDE8F88F2368002BCB
:10415000F3D00126FFF7DAFE00B12E602368013BA1
:1041600023602368002BF5D1E7E700F0F7FF01F0AB
:1041700039F82046BDE8F88F70B500284DD00029E9
:1041800048D040F26423C2F200031A68002A3ED1EC
:104190001C68026840F288260134C2F200061C60E6
:1041A0003368934202EB010426D3A24201D8A34212
:1041B00024D240F26C25C2F2000504602868043065
:1041C000FEF772FC2A68336854609C4228D340F2A0
:1041D000E013C2F20003186829680431FEF74AFCB4
:1041E00040F25003C2F200031A68944238BF1C60C8
:1041F000FFF74AFF38B170BDA242D8D80460FFF77C
:1042000043FF0028F7D1BDE8704000F0A7BF00F0E1
:10421000B1FFFEE700F0AEFFFEE700F0ABFFFEE708
:1042200040F28C23C2F20003186829680431FEF7BB
:1042300021FCDDE770B5024618B9BDE8704000F01A
:104240008DBF40F26423C2F20003196859BB19689C
:1042500040F2882640F26C240131C2F20006C2F21C
:10426000000419603568206804301544FEF71CFC12
:104270002268336855609D4218D340F2E013C2F2C1
:104280000003186821680431FEF7F4FB40F2500384
:10429000C2F200031A68954238BF1D60FFF7F4FEB2
:1042A0000028CAD070BD00F065FFFEE740F28C2305
:1042B000C2F20003186821680431FEF7DBFBEDE76A
:1042C0002DE9804840F2EC1683B040F2E81540F248
:1042D0006822C2F20006C2F2000540F2642440F2F5
:1042E0000029C2F20002B246A846C2F200040192BE
:1042F000C2F2000906E02368376801332360FFF744
:10430000C3FE4FB92B68002BF5D1D9F80030012B33
:10431000F8D900F023FFF5E700F050FFDAF80C3091
:10432000D3F80CB00BF10400FEF7BEFB019A136842
:10433000013B1360D8F80030013BC8F8003000F0B2
:1043400051FFDBF8300001F06BF8584601F068F8D7
:10435000D8E700BF40F26423C2F200032DE9F04F1A
:104360001D6840F26824C2F2000401351D60236814
:1043700085B08B428DE8050088BF00263FD840F20B
:104380000022C2F200024FF00009A2F10C0A02F171
:104390005805C8464FF0010C55F8080C002834D1D8
:1043A000143D55458144F7D140F2E013C2F20003B9
:1043B0001F683E68002E40F0C28040F28C23C2F29B
:1043C0000003B1441F683E68002E40F0F68040F2C2
:1043D000EC17C2F20007B1443E68002E40F0338172
:1043E00040F2C027C2F2000706EB090A3E68002E21
:1043F00058D1019B564413B11A4600231360FFF7AE
:1044000043FE304605B0BDE8F08F55F8043C5968CE
:1044100040F20023C2F20003A94203F1580245F81A
:10442000041CC3EB050708BF69681744009ACE68EF
:1044300008BF45F8041C02EB491300204968A94253
:1044400045F8041C08BF57F8541CCA6808BF45F853
:10445000041C02F1340483E81400146C83F80CC0CB
:104460009C60D46A1C61946CC3F818805C61146B06
:1044700094F800E0BEF1A50F12D1A64600241EF864
:1044800001BFBBF1A50F04F10104F8D0C4F38F0400
:1044900096429C8300F1010003F12003CED17FE717
:1044A0000024F5E77B68FA685D68029207F1080E60
:1044B00075457D6008BFFD68009BD5F80C9040F203
:1044C000C0220026C2F2000203EB4A10B04603925B
:1044D0004FF0030C4FF0020B6D68754508BF029B4F
:1044E0007D6004BF1D46039AEC6808BF536004F169
:1044F000340304604360236C80F80CC08360E36A7B
:104500000361A36A0BB180F80CB0A36CC0F81880EB
:104510004361226B1378A52B4FF0000307D112F8EB
:10452000011FA52903F10103F9D0C3F38F03A145AE
:10453000838306F1010600F12000CDD159E77B68A5
:104540005D68009B7D6007F1080E754508BFDEF8C9
:1045500004500026D5F80CA0B04603EB49104FF0EC
:10456000020C6D68AE457D6008BFFD68EA6808BF53
:104570007D6002F1340380E80C00136C80F80CC0FD
:104580008360D36A0361936CC0F818804361116B38
:104590000B78A52B4FF0000307D111F8014FA52C84
:1045A00003F10103F9D0C3F38F039245838306F12E
:1045B000010600F12000D4D1FFE67B685D68009B16
:1045C0007D6007F1080E754508BFDEF8045000262F
:1045D000D5F80CA0B04603EB49104FF0020C6D6803
:1045E000AE457D6008BFFD68EA6808BF7D6002F1E6
:1045F000340380E80C00136C80F80CC08360D36A2D
:104600000361936CC0F818804361116B0B78A52B84
:104610004FF0000307D111F8014FA52C03F101035E
:10462000F9D0C3F38F039245838306F1010600F1AD
:104630002000D4D140F2EC17C2F20007B1443E682A
:10464000002E3FF4CDAE7B68FA685D68009B7D600C
:1046500007F1080E754508BFFD680292002640F27A
:10466000EC1BD5F80CA0B046C2F2000B03EB4910CE
:104670004FF0040C6D68754508BF029A7D6004BF59
:104680001546CBF80420EB6803F134020360426066
:104690001A6C80F80CC08260DA6A02619A6CC0F809
:1046A00018804261196B0A78A52A4FF0000207D1E1
:1046B00011F8014FA52C02F10102F9D0C2F38F02CB
:1046C0009A45828306F1010600F12000D2D187E6E7
:1046D00008B540F26423C2F200031968002935D1FD
:1046E00040F2D822C2F2000240F2D423C2F2000308
:1046F0001160196840F2002201EB8101C2F2000250
:1047000052F8211079B91968184611B925E00168E5
:1047100019B3196801391960196801EB810152F860
:1047200021100029F3D01B6803EB830302EB830203
:1047300002F1080153685B688B42536010D040F26D
:104740006C22DB68C2F20002136008BD40F2D8237D
:10475000C2F2000301221A6008BD00F00BFDFEE763
:104760005B685360EBE700BF38B50D4600283FD0CB
:1047700040F26C24C2F2000421681831FEF77AF985
:1047800020680430FEF790F96A1C27D040F2882395
:10479000C2F20003196822681B680D449D425560EF
:1047A00011D340F2E013C2F200031868216804310B
:1047B000FEF760F940F25003C2F200031A68954216
:1047C00038BF1D6038BD40F28C23C2F20003186868
:1047D0002168BDE838400431FEF74CB9216840F249
:1047E000C0200431C2F20000BDE83840FEF732B903
:1047F00000F0C0FCFEE700BF38B51546002838D0F1
:1048000040F26423C2F200031B6813B900F0B2FC4B
:10481000FEE740F26C24C2F2000441F0004122683D
:104820002368916103F11801FEF714F92068043040
:10483000FEF73AF9691C2AD040F28823C2F200033D
:10484000196822681B680D449D42556014D340F2DC
:10485000E013C2F20003186821680431FEF70AF978
:1048600040F25003C2F200031A68954238BF1D603F
:1048700038BD00F07FFCFEE740F28C23C2F200035B
:1048800018682168BDE838400431FEF7F3B82168A4
:1048900040F2C0200431C2F20000BDE83840FEF70B
:1048A000D9B800BF38B50D4640B340F26C24C2F20F
:1048B000000421681831FEF7CDF820680430FEF7B7
:1048C000F3F840F28823C2F20003196822681B68DB
:1048D0000D449D42556014D340F2E013C2F2000330
:1048E000186821680431FEF7C5F840F25003C2F29F
:1048F00000031A68954238BF1D6038BD00F03AFCCD
:10490000FEE740F28C23C2F2000318682168BDE87C
:1049100038400431FEF7AEB838B5C368DC68002C07
:104920003CD004F118052846FEF7BEF840F2642397
:10493000C2F200031B684BBB251D2846FEF7B4F8E6
:1049400040F2D422C2F20002E36A116840F2002071
:104950008B4288BF1360C2F2000003EB8303294639
:1049600000EB8300FEF776F840F26C23C2F20003FE
:10497000E26A1B68DB6A9A4281BF40F2D823C2F226
:1049800000030120186098BF002038BD40F270205D
:104990002946C2F20000FEF75DF8E5E700F0EAFB09
:1049A000FEE700BF38B540F26423C2F200031A6884
:1049B000002A30D0C46841F00042026074B3251D63
:1049C000FEF772F82846FEF76FF840F2D422C2F2E2
:1049D0000002E36A116840F200208B4288BF136036
:1049E000C2F2000003EB830300EB83002946FEF7CD
:1049F00031F840F26C23C2F20003E26A1B68DB6A02
:104A00009A4281BF40F2D823C2F20003012018600D
:104A100098BF002038BD00F0ADFBFEE700F0AAFB18
:104A2000FEE700BF08B560B140F2842240F288235F
:104A3000C2F20002C2F2000312681B6880E80C0098
:104A400008BD00F097FBFEE7F8B504460D460028C8
:104A500031D069B300F0B2FB40F288232E68C2F275
:104A60000003771C18681ED040F28422C2F20002B4
:104A700021681768B942616801D088420ED2471A8E
:104A8000BE420BD9301A12681B6801442960002508
:104A900084E80C0000F0A6FB2846F8BD012500F0D4
:104AA000A1FB2846F8BD002500F09CFB2846F8BD78
:104AB00000F060FBFEE700F05DFBFEE740F2D8236C
:104AC000C2F2000301221A60704700BF00B1406CBF
:104AD000704700BF00B14164704700BF40F26C23D3
:104AE000C2F200031868704740F2E413C2F20003F8
:104AF0001B684BB140F26423C2F20003186800281F
:104B00000CBF02200020704701207047F8B5044612
:104B1000F8B140F26C25C2F20005C36A2A68D26A75
:104B2000934216D28269002AA4BF2A68D26A40F250
:104B30000026A4BFC2F10502826103EB8303C2F227
:104B40000006426906EB83039A4203D02B68DB6AB6
:104B5000C362F8BD071D3846FDF7A6FF40F2D42218
:104B60002B68C2F20002DB6A1168E3628B4203EB3E
:104B7000830088BF136006EB80003946BDE8F8402B
:104B8000FDF768BF38B5044620B3C26A836C9A4209
:104B900020D0051D2846FDF787FFA269A36C002AD7
:104BA000A4BFC3F10502A26140F2D422C2F2000206
:104BB00040F200201168E3628B4288BF1360C2F2AA
:104BC000000003EB8303294600EB8300BDE8384077
:104BD000FDF740BF38BD00BF40F26C23C2F20003B6
:104BE00019681A681B688869DB6AC3F10503936159
:104BF000704700BF2DE9F04140F20C34C2F20004CE
:104C000084B000F0DBFAD4F80080B8F1000F1AD0BD
:104C100000F0E8FA2368002B3FD00023022244F67C
:104C2000A95041F2C8718DE80C0002930393C0F6BD
:104C30000000C0F601014FF48272FEF793FD60B3ED
:104C400004B0BDE8F08140F2E026C2F2000640F276
:104C5000F4253046C2F20005FDF7ECFE2846FDF7CC
:104C6000E9FE40F2DC2740F21033C2F20003C2F248
:104C7000000742460A200C213E601D60FDF7B8FF88
:104C8000206068B141F2C071C0F60101FEF77CFC02
:104C900000F0A8FA2368002BBFD100F06BFAFEE702
:104CA00000F068FAFEE700BF2DE9F04F884683B0B8
:104CB000834692461F46F1B12C2000F081FB04464A
:104CC000A8B140F20C35C2F2000500F077FA2A686C
:104CD000A2B100F087FA0C9BC4F800B0C4F81880A9
:104CE000C4F81CA027626362201DFDF7AFFE2046BA
:104CF00003B0BDE8F08F00F03DFAFEE740F2E02996
:104D0000C2F2000940F2F4264846C2F200060192BF
:104D1000FDF790FE3046FDF78DFE40F2DC2C40F2B0
:104D2000103EC2F2000CC2F2000E019ACCF80090C4
:104D30000A200C21CEF80060FDF75AFF286030B140
:104D400041F2C071C0F60101FEF71EFCC1E700F0A0
:104D500011FAFEE770B540F20C34C2F2000484B0E0
:104D60002568EDB1052901910292039007DD1A46ED
:104D7000284601A90023FEF73BF904B070BDFFF7F8
:104D8000B3FE022813BF00222068089A206807BFDC
:104D900001A90023134601A9FDF7A8FF04B070BDC7
:104DA000284604B070BD00BF2DE9F04F40F210302E
:104DB0008BB040F2DC2540F2083840F20C34C2F2ED
:104DC0000000C2F20005C2F20008C2F20004039023
:104DD0002B681E68D6F1010638BF002600270EB9E1
:104DE000DB681F68FFF76AF8FFF770F8D8F8003043
:104DF0009842824659D386F0010387428CBF002334
:104E000003F0010340F20830C2F20000C0F800A035
:104E1000002B77D1CAEB07012068FEF713FCFFF7E0
:104E200033F9002800F0958000221346206804A979
:104E3000FEF770F90028CBD0049B002BF4DBDDF8E3
:104E40001890D9F814301BB109F10400FDF72CFEBD
:104E5000FFF73CF8D8F800300290984245D3049B05
:104E60000299092BC8F80010DED8012202FA03F3D8
:104E700013F4047F40F0F98013F0C70F40F0CE80A8
:104E80009B06D1D5484600F0CBFACDE7DB68DE685B
:104E9000D3F8009006F1040B5846FDF705FE736A3F
:104EA00030469847F369012B3DD02B681A6840F2D1
:104EB000DC27C2F20007002AE8D10398C8F800A056
:104EC000026803603A60FFF7DFF8ADE7DB68DE6891
:104ED000D3F800A006F1040B5846FDF7E5FD736A10
:104EE00030469847F369012B28D02B681A6840F2A6
:104EF000DC27C2F20007002AE8D1039802680360A9
:104F00003A60ACE7FFF7C0F82B68DB68DE6806F1B3
:104F1000040B5846FDF7C8FDF369012B1CD0736ADA
:104F20003046984780E7B3694B444B4535D97360A9
:104F3000366138685946FDF79DFDB6E7B3695344BD
:104F4000534543D97360366138685946FDF792FD81
:104F5000CBE700F003F967E7B3693661FA189245C9
:104F600072604CD3C7EB0A0A534551D823688BB102
:104F70000020079008970996FFF7B6FD40F20C3124
:104F8000C2F2000100220868134607A9FDF7AEFE31
:104F90000028C4D100F0EEF8FEE723689BB10021A1
:104FA0000791CDF820900996FFF79EFD40F20C3155
:104FB000C2F2000100220868134607A9FDF796FE19
:104FC00000287FF472AF00F0D5F8FEE723689BB1AC
:104FD00000220792CDF820A00996FFF785FD40F248
:104FE0000C31C2F2000100220868134607A9FDF740
:104FF0007DFE00287FF479AF00F0BCF8FEE740F2B8
:10500000DC23C2F2000359461868FDF733FD86E73A
:10501000039A59461068FDF72DFD80E7059BD9F8E6
:1050200018100298C9F81090CA188242C9F80420D2
:105030002FD8C31A99423BD8D9F82430484698470C
:10504000D9F81C30012B7FF4EFAED9F81820059B5E
:1050500000211A44009148460B46FFF77BFE0028CA
:105060007FF4E2AE00F086F8FEE7059BC9F8183041
:105070002BB3029AC9F8109013449342C9F8043034
:1050800096BF039B2868186809F10401FDF7F2FC3C
:10509000CAE6834294BF00210121934288BF0021C8
:1050A0000029C9D109F104012868FDF7E3FCBBE63A
:1050B000039A09F104011068FDF7DCFCB4E600F086
:1050C00059F8FEE710B5044600F078F8646900343A
:1050D00018BF012400F086F8204610BD006A704712
:1050E00005480068006880F3088862B6BFF34F8FF8
:1050F000BFF36F8F00DF00BF08ED00E0DFF80C00AA
:10510000016841F4700101607047000088ED00E023
:1051100030B445F285134FF080756FF00204C0F68D
:10512000000340F8045C40F8244C40F8081C40F8A8
:10513000202C40F80C3C30BC44387047064B1968B2
:105140000868B0E8F04F80F30988BFF36F8F4FF025
:10515000000080F3118870476C0200204EF6045363
:10516000CEF200034FF080521A60BFF34F8FBFF3AF
:105170006F8F7047EFF311804FF0500181F311886A
:105180007047002008B540F25403C2F200031B68C8
:10519000013302D0FFF7EEFFFEE7FFF7EBFFFEE77C
:1051A00008B540F25403C2F200031B68B3F57A7FDE
:1051B00002D0FFF7DFFFFEE708BD00BF08B5FFF72D
:1051C000D9FF40F25403C2F200031A6801321A6098
:1051D000BFF34F8FBFF36F8F08BD00BF80F31188FF
:1051E000704700BF08B540F25403C2F200031868CC
:1051F00018B10138186018B108BDFFF7BBFFFEE712
:10520000BDE80840FFF7EABFEFF30980BFF36F8FF7
:10521000124B1A681EF0100F08BF20ED108A20E90B
:10522000F04F10604DF8043D4FF0500080F31188AE
:10523000FFF74EFA4FF0000080F3118808BC1968A0
:105240000868B0E8F04F1EF0100F08BFB0EC108AED
:1052500080F30988BFF36F8F704700BF6C02002096
:1052600008B5FFF787FFFEF751FE30B14EF6045345
:10527000CEF200034FF080521A600020BDE80840D3
:10528000FFF7ACBF40F24C03C2F2000344F6D35226
:105290001868C1F26202A2FB00304EF214024EF214
:1052A00010038009CEF20002CEF20003013807217C
:1052B00010601960704700BF10B54FF46443CEF220
:1052C000000382B01978FF22C9B201911A701B78CD
:1052D000DBB28DF803309DF803409DF8031040F2D7
:1052E000143240F21830C2F20002C2F2000004F0A0
:1052F000500407230906147003600ED5062300E04E
:105300000B469DF803205200D2B28DF803209DF881
:105310000320120603F1FF31F2D4019C4FF46441E3
:10532000CEF200011B024EF62052CEF2000203F430
:10533000E063E4B203600C70136843F4700313601D
:10534000136843F070431360FFF79CFF40F254036F
:10535000C2F2000300221A60FFF7D0FE4EF634734B
:10536000CEF200031A6842F040421A60FFF7B8FE1E
:10537000FFF708FF08B5EFF305810F290BD94EF2AF
:10538000F03240F21433CEF20002C2F200038A5C23
:105390001B78934211D84EF60C52CEF2000240F226
:1053A0001833C2F2000312681B6802F4E0629A42EA
:1053B00000D808BDFFF7DEFEFEE7FFF7DBFEFEE7E5
:1053C00038B5430704461CBF20F007040834FEF735
:1053D00075FD40F21C33C2F200031A681546C2B1D3
:1053E00040F22033C2F2000342F6F7311A68C0F2ED
:1053F000010114448C4207D8A24205D215441C6016
:10540000FEF742FE284638BD0025FEF73DFE284641
:1054100038BD024D25F007051D60E1E72C03002093
:1054200008B510B1FFF7A6FEFEE708BD40F2203335
:10543000C2F2000300221A60704700BF40F220331E
:10544000C2F200031868C0F5953000F5FC70704793
:105450004FF46D4340F0BF60CEF2000340F40030E3
:10546000D8607047C37870B47BB902784FF4614359
:105470005109203102F01F020120CEF2000300FA90
:1054800002F243F8212070BC70474FF46D43CEF216
:1054900000034678DA6884780378D243C2F30222A4
:1054A000C2F104010F25C9B206FA01F145FA02F270
:1054B000C9B222400A4303F1604303F5614312017C
:1054C000D2B283F8002302784FF4614302F01F0147
:1054D00001205209CEF2000300FA01F143F8221034
:1054E00070BC704721F060414FF46D4321F07F01A3
:1054F000CEF2000308439860704700BF4FF46D433D
:10550000CEF200031A6919B922EA00001861704747
:1055100010431861704700BF4EF21003CEF2000333
:1055200004281A680CBF42F0040222F004021A6038
:10553000704700BF08B50023C4F20203984248D068
:105540004FF48063C4F2020398424CD04FF40063DE
:10555000C4F20203984250D04FF44063C4F20203F5
:10556000984254D04FF48053C4F20203984258D06A
:105570004FF4A053C4F2020398425CD04FF4C053DE
:10558000C4F20203984260D04FF4E053C4F2020325
:10559000984264D04FF40053C4F20203984268D09A
:1055A0004FF41053C4F2020398426ED04FF42053CC
:1055B000C4F20203984200D008BD4FF4806001217C
:1055C00000F040FB4FF480600021BDE8084000F08F
:1055D00039BB0120014600F035FB01200021BDE868
:1055E000084000F02FBB0220012100F02BFB02201D
:1055F0000021BDE8084000F025BB0420012100F097
:1056000021FB04200021BDE8084000F01BBB08205E
:10561000012100F017FB08200021BDE8084000F040
:1056200011BB1020012100F00DFB10200021BDE86E
:10563000084000F007BB2020012100F003FB2020E0
:105640000021BDE8084000F0FDBA4020012100F033
:10565000F9FA40200021BDE8084000F0F3BA8020AC
:10566000012100F0EFFA80200021BDE8084000F0A1
:10567000E9BA4FF48070012100F0E4FA4FF4807031
:105680000021BDE8084000F0DDBA4FF400700121B0
:1056900000F0D8FA4FF400700021BDE8084000F097
:1056A000D1BA00BF00222DE9F00713460E6801278A
:1056B0004FF0030804E00133102B02F102022ED058
:1056C00007FA03F404EA0605A542F4D1D0F80090E5
:1056D00091F804C008FA02F4E44304EA0909C0F8A6
:1056E0000090D0F800900CFA02FA0CF1FF3C5FFA3F
:1056F0008CFC4AEA0909BCF1010FC0F8009011D9ED
:10570000C56891F807C02C40C460C5680CFA02F463
:1057100001332C43102BC46002F10202D0D1BDE84A
:10572000F0077047D0F808A091F8059091F806C0EE
:1057300004EA0A0AC0F808A0D0F808A009FA02F999
:1057400049EA0A09C0F80890D0F8049029EA05054A
:10575000456045680CFA03FC1FFA8CFC4CEA050511
:105760004560CDE700234FF6FF720260037143717D
:105770008371C371704700BF82B04FF480330193CF
:10578000019B0B430193019BC361C161019BC361F9
:10579000C3690193C369019302B070470369194259
:1057A0000CBF002001207047006980B2704700BF25
:1057B000436919420CBF002001207047406980B244
:1057C000704700BF01837047418370470AB9418326
:1057D00070470183704700BF41617047436959407A
:1057E00041617047CB0800EB830001F0070110B462
:1057F0008900046A0F238B4024EA03030362036ACF
:105800005DF8044B8A401343036270474FF46053C2
:10581000C4F202030022196841F0010130B419609A
:105820009A601D684FF44050014643F2100425F081
:10583000A85525F41025C2F20044C2F20041C2F27C
:1058400000001D605C60C3F88400C3F8881019680C
:1058500021F48021196030BCDA60C3F88C207047D5
:1058600043F60203C4F2020300221A701870704754
:1058700082B000234FF460520193C4F20202136815
:105880009B030FD4019B01330193019BB3F5A04F00
:10589000F5D14FF46053C4F202031868C0F34040DE
:1058A00002B07047019B01330193019BF1E700BFF8
:1058B0004FF46053C4F202031A6822F0F80242EA7D
:1058C000C0001860704700BF0023C4F2472318606F
:1058D000704700BF43F67003C4F2020300220128A0
:1058E0001A701A7005D0042802D105221A70704768
:1058F00070471870704700BF4FF46863C4F24723C5
:105900001860704710B4019C40EA04605B080143D2
:105910004FF46054C4F20204013B41EA821242EAAD
:10592000034363605DF8044B704700BF6023C4F21B
:1059300047231860704700BF12074FF4605342EAD4
:105940000161C4F2020341EA8010C3F88400704789
:105950006823C4F247231860704700BF12074FF452
:10596000605342EA0161C4F2020341EA8010C3F8C5
:10597000880070477023C4F247231860704700BF47
:105980004C23C4F247231860704700BF4FF46053A4
:10599000C4F202039A6822F0EC6211430843986053
:1059A000704700BF4FF46053C4F202039A6822F0BC
:1059B0007842114308439860704700BF4FF460532A
:1059C000C4F202039A6822F0030210439860704701
:1059D0004FF46053C4F20203986800F00C00704763
:1059E0004FF46053C4F202039A6822F0F0021043AD
:1059F000986070474FF46053C4F202039A6822F42F
:105A0000E0521043986070474FF46053C4F20203B1
:105A10009A6822F4604242EAC0009860704700BF72
:105A20004FF46053C4F2020310B49A6802F00C02FF
:105A3000042A24D0082A28D04FF41051C0F2F401CF
:105A400001604FF46052C4F2020240F258039468BD
:105A5000C2F20003C4F303141C5DE140416094688A
:105A6000C4F382241C5D21FA04F4846092685DF81A
:105A7000044BC2F342329B5CD940C16070474FF483
:105A80009051C0F27A010160DBE75C685A6814F457
:105A9000800F5C6815BF4FF490534FF41053C0F261
:105AA0007A03C0F2F40302F03F02B3FBF2F14FF4C9
:105AB0006053C4F20203C4F388145B68C3F3014368
:105AC000013301FB04F15B00B1FBF3F10160B8E7C6
:105AD00000F44073B3F5407F0CD14FF46053C4F22F
